:100000000C9492060C94D9060C94D9060C94D9063B
:100010000C94D9060C94D9060C94D9060C94D906E4
:100020000C94D9060C94D9060C9457260C942A27C4
:100030000C94C01D0C94D9060C94D9060C94D906C6
:100040000C94D9060C94D9060C94D9060C94D906B4
:100050000C94D9060C94281E0C94D9060C94D9063D
:100060000C94D9060C94D9060C94D9060C94D90694
:100070000C94D9060C94D9060C94D9060C94D90684
:100080000C94D9060C94D9060C94D9060C94D90674
:100090000C94D9060C94D9060C94D9060C94D90664
:1000A0000C94D9060C94D9060C94D90629001E008C
:1000B0001F0020002100220023002400250026002C
:1000C00027002D002E002A002B0014001A00080023
:1000D000150017001C0018000C00120013002F0060
:1000E00030003100390004001600070009000A0042
:1000F0000B000D000E000F0033003400000028003C
:10010000E10000001D001B000600190005001100A1
:10011000100036003700000035005200E000E20019
:10012000E300000000002C000000386250000000D6
:100130000151E60051004F0000703A003B003C00C6
:100140003D003E003F0040004100420043004400AB
:1001500045004C00010001005200010001000100B7
:100160000100010001000100A800AA00A90001008F
:100170000100500051004F0001000100010001008A
:100180000100AE00AC00AB00000001000100000067
:100190000100010001000100010001000100010057
:1001A0000100000034706A0001000100010000003D
:1001B000000001000000010001000000010001003A
:1001C000690035700100010001000100010001001B
:1001D0000100010001000100010001000100010017
:1001E0000100010001000100010001000100010007
:1001F00001000100010001000100010001000100F7
:1002000001000100010001000100010001000100E6
:1002100001000100000001000100000001000100D8
:1002200001000100010001000100010001000000C7
:1002300001000100010001000100000000000100B8
:1002400000000100010000000100010001000100A8
:100250000100010001000100010001000100010096
:100260000100010001000100010001000100010086
:100270000100010001000100010001000100010076
:100280000100010001000100010001000100010066
:100290000100010001000100010001000100010056
:1002A0000000010001000000010001000100010048
:1002B0000100010001000100010000000100010037
:1002C0000100010001000000000001000000010029
:1002D0000100000001000100010001000100010017
:1002E0000100010001000100010001000100010006
:1002F00001000100010001000100010001000100F6
:1003000001000100010001000100010001000100E5
:1003100001000100010001000100010001000100D5
:1003200001000100010001000100010000000100C6
:1003300001000000010001000100010001000100B6
:1003400001000100010000000100010001000100A6
:100350000100000000000100000001000100000099
:100360000100010001000100010001000100010085
:100370000100010001000100010001000100010075
:100380000100010001000100010001000100010065
:100390000100010001000100010001000100010055
:1003A0000100010001000100010001000100010045
:1003B0000100010001000100000001000100000037
:1003C0000100010001000100010001000100010025
:1003D0000100000001000100010001000100000017
:1003E0000000010000000100010000000100010008
:1003F00001000100010001000100010001000100F5
:1004000001000100010001000100010001000100E4
:1004100001000100010001000100010001000100D4
:1004200001000100010001000100010001000100C4
:1004300001000100010001000100010001000100B4
:1004400001000100000001000100000001000100A6
:100450000100010001000100010001000100000095
:100460000100010001000100010000000000010086
:100470000000010001000000010001000100010076
:100480000100010001000100010001000100010064
:100490000100010001000100010001000100010054
:1004A0000100010001000100010001000100010044
:1004B0000100010001000100010001000100010034
:1004C0000100010001000100010001000100010024
:1004D0000000010001000000010001000100010016
:1004E0000100010001000100010000000100010005
:1004F00001000100010000000000010000000100F7
:1005000001000000010001000100010001000100E4
:1005100001000100010001000100010001000100D3
:1005200001000100010001000100010001000100C3
:1005300001000100010001000100010001000100B3
:1005400001000100010001000100010001000100A3
:100550000100010001000100010001000000010094
:100560000100000001000100010001000100010084
:100570000100010001000000010001000100010074
:100580000100000000000100000001000100000067
:100590000100010001000100010001000100010053
:1005A0000100010001000100010001000100010043
:1005B0000100010001000100010001000100010033
:1005C0000100010001000100010001000100010023
:1005D0000100010001000100010001000100010013
:1005E0000100010001000100000001000100000005
:1005F00001000100010001000100010001000100F3
:1006000001000000010001000100010001000000E4
:1006100000000100000001000100000001000100D5
:1006200001000100010001000100010001000100C2
:1006300001000100010001000100010001000100B2
:1006400001000100010001000100010001000100A2
:100650000100010001000100010001000100010092
:100660000100010001000100010001000100010082
:100670000100010000000100010000000100010074
:100680000100010001000100010001000100000063
:100690000100010001000100010000000000010054
:1006A0000000010001000000010001000100010044
:1006B0000100010001000100010001000100010032
:1006C0000100010001000100010001000100010022
:1006D0000100010001000100010001000100010012
:1006E0000100010001000100010001000100010002
:1006F00001000100010001000100010001000100F2
:1007000000000100010000000100010001000100E3
:1007100001000100010001000100000001000100D2
:1007200001000100010000000000010000000100C4
:1007300001000000010001000100010001000100B2
:1007400001000100010001000100010001000100A1
:100750000100010001000100010001000100010091
:100760000100010001000100010001000100010081
:100770000100010001000100010001000100010071
:100780000100010001000100010001000000010062
:100790000100000001000100010001000100010052
:1007A0000100010001000000010001000100010042
:1007B0000100000000000100000001000100000035
:1007C0000100010001000100010001000100010021
:1007D0000100010001000100010001000100010011
:1007E0000100010001000100010001000100010001
:1007F00001000100010001000100010001000100F1
:1008000001000100010001000100010001000100E0
:1008100001000100010001000000010001000000D2
:1008200001000100010001000100010001000100C0
:1008300001000000010001000100010001000000B2
:1008400000000100000001000100000001000100A3
:100850000100010001000100010001000100010090
:100860000100010001000100010001000100010080
:100870000100010001000100010001000100010070
:100880000100010001000100010001000100010060
:100890000100010001000100010001000100010050
:1008A0000100010000000100010000000100010042
:1008B0000100010001000100010001000100000031
:1008C0000100010001000100010000000000010022
:1008D0000000010001000000010001000100010012
:1008E0000100010001000100010001000100010000
:1008F00001000100010001000100010001000100F0
:1009000001000100010001000100010001000100DF
:1009100001000100010001000100010001000100CF
:1009200001000100010001000100010001000100BF
:1009300000000100010000000100010001000100B1
:1009400001000100010001000100000001000100A0
:100950000100010001000000000001000000010092
:100960000100000001000100010001006432146474
:100970003214783C1E1E140A05000000000101011B
:100980000202030405050607090A0B0C0E0F1112DB
:10099000141517191B1D1F212325282A2C2F31342C
:1009A00036393B3E414346494C4F5255585A5D619A
:1009B00064676A6D707376797C7F8386898C8F9289
:1009C00095989B9EA2A5A7AAADB0B3B6B9BCBEC16F
:1009D000C4C6C9CBCED0D3D5D7DADCDEE0E2E4E6BC
:1009E000E8EAEBEDEEF0F1F3F4F5F6F8F9FAFAFBDC
:1009F000FCFDFDFEFEFEFFFFFFFFFFFFFFFEFEFE14
:100A0000FDFDFCFBFAFAF9F8F6F5F4F3F1F0EEED82
:100A1000EBEAE8E6E4E2E0DEDCDAD7D5D3D0CECB11
:100A2000C9C6C4C1BEBCB9B6B3B0ADAAA7A5A29E83
:100A30009B9895928F8C898683807C797673706D74
:100A40006A6764615D5A5855524F4C494643413E6E
:100A50003B393634312F2C2A282523211F1D1B1901
:100A600017151412110F0E0C0B0A090706050504C1
:100A7000030202010101000000000000000001016A
:100A8000010101010101010202020202020202024D
:100A9000030303030303030304040404040405051C
:100AA00005050506060606060707070708080808DD
:100AB0000909090A0A0A0A0B0B0B0C0C0C0D0D0D87
:100AC0000E0E0F0F0F101011111112121313141418
:100AD000151516161717181819191A1A1B1C1C1D8C
:100AE0001D1E1F1F202021222223242525262727E3
:100AF00028292A2B2B2C2D2E2F2F30313233343511
:100B000036363738393A3B3C3D3E3F40414243441C
:100B1000464748494A4B4C4D4F50515253555657F2
:100B2000585A5B5C5E5F606263646667696A6C6D9D
:100B30006E707173747678797B7C7E808183848615
:100B4000888A8B8D8F91929496989A9B9D9FA1A352
:100B5000A5A7A9ABADAFB1B3B5B7B9BBBDBFC1C454
:100B6000C6C8CACCCFD1D3D6D8DADCDFE1E4E6E818
:100B7000EBEDF0F2F5F7FAFCFF12036B006500797C
:100B80000062006F006100720064000000160371D3
:100B9000006D006B006200750069006C0064006508
:100BA00000720000000403090409026D0004010042
:100BB000A0FA09040000010301010009211101004C
:100BC000012240000705810308000A090401000111
:100BD00003010200092111010001224D00070582D5
:100BE0000308000A090402000103000000092111A2
:100BF0000100012236000705830308000A090403E7
:100C00000001030000000921110100012239000741
:100C10000584032000011201100100000008EDFE10
:100C2000606001000102000105010906A10105073C
:100C300019E029E7150025019508750181020508CD
:100C40001901290595057501910295017503910119
:100C50000507190029F71500250195F8750181028E
:100C6000C005010980A10185021601002603001AB2
:100C700081002A8300751095018100C0050C0901CF
:100C8000A1018503160100269C021A01002A9C027C
:100C9000751095018100C005010902A1010901A19A
:100CA0000005091901290515002501950575018122
:100CB000029501750381010501093009311581256E
:100CC0007F95027508810609381581257F95017584
:100CD000088106050C0A38021581257F95017508E3
:100CE0008106C0C005010906A101050719E029E731
:100CF000150025019508750181029501750881018E
:100D000005081901290595057501910295017503DD
:100D100091010507190029FF150026FF00950675AA
:100D2000088100C011241FBECFEFDAE0DEBFCDBFC7
:100D300004B603FE27C080917A0290917B02A091B5
:100D40007C02B0917D028730904BA740B04BD1F42C
:100D500010927A0210927B0210927C0210927D0215
:100D600014BE84B7877F84BF0FB6F894A89580918E
:100D70006000886180936000109260000FBEE0E028
:100D8000F8E3099511E0A0E0B1E0E0E0F5E502C08C
:100D900005900D92AC33B107D9F722E0ACE3B1E096
:100DA00001C01D92AA37B207E1F70E94A4230C9458
:100DB0007E2A0C94000090E080E008950895089544
:100DC00081E00895089581E008950C94E0060E9462
:100DD00032162FEF84E39CE0215080409040E1F7F1
:100DE00000C000000C944D1EFF920F931F93CF93F1
:100DF000DF938C01FC01C081D18180918D01811133
:100E000048C08281882309F43FC0CE010E94991B0B
:100E1000F82E682FCE010E943F1BBE018F2D0E942D
:100E20009008EC01B8010E94E506882309F478C017
:100E3000B801CE010E94A00A882309F471C0C6330C
:100E4000F0E7DF0709F484C0C0F5C53190E7D907A2
:100E500028F5C230E0E7DE0708F099C0C115F0E7D9
:100E6000DF0709F458C0C130D04709F460C081E001
:100E700080933E0180933F01C801DF91CF911F9184
:100E80000F91FF900C94E306CE010E946E1BF82E8A
:100E9000C4CFCE010E94991BBE01C1CFC43390E7DD
:100EA000D90709F44EC0C533D04709F7F80182814C
:100EB0008823B1F10E94BB0E33C0CA33F0E7DF07CD
:100EC00009F457C070F4F8018281C833F0E7DF07F6
:100ED00009F44AC008F443C0882311F10E94FF0DB1
:100EE0001FC0CC33E0E7DE0709F4D5C008F448C0E2
:100EF000CD33D04709F0BBCFF8018281882309F4B4
:100F0000F1C010923F010E94F21D90933D01809329
:100F10003C0180E2CDC0F801828181110E94E70688
:100F200080E0DF91CF911F910F91FF900895F8011C
:100F300082818823A9F3809120028160809320021E
:100F4000EFCFF8018281882359F30E94C50EE8CFC4
:100F5000F8018281882321F30E94B00DE1CF88231C
:100F6000F9F20E94C80DDCCF8823D1F20E94E70D70
:100F7000D7CFF8018281882399F20E94170ED0CF33
:100F8000F8018281882361F20E942F0EC9CFF801F7
:100F90008281882309F470CF0E94511D811102C003
:100FA0000E94301D0E946E1D90E090936C02809311
:100FB0006B02FE01E350F04780916B028160E231E9
:100FC000F105C8F4EA51F84F0C94302AF8070408E8
:100FD00008080C081008140818081C082008240821
:100FE00028082C083008340838083C084008440811
:100FF00080916B02826080936B0280916B020E94F1
:10100000721D0E9432168CCF80916B028460F3CFE8
:1010100080916B028860EFCF80916B028061EBCF93
:1010200080916B028062E7CF80916B028064E3CF96
:1010300080916B028068DFCF80916B028460EACF81
:1010400080916B028E7FD7CF80916B028D7FD3CF43
:1010500080916B028B7FCFCF80916B02877FCBCF4C
:1010600080916B028F7EC7CF80916B028F7DC3CF43
:1010700080916B028F7BBFCF80916B028F77BBCF4C
:1010800080916B028B7FEACF90916B02892F97FB47
:1010900087F98058B0CFF8018281882361F01092DF
:1010A0003E010E94F21D90933D0180933C0182E03D
:1010B0000E94BC1335CF80913E0181110FC08091F9
:1010C0003C0190913D010E94FE1D883C910530F449
:1010D00086E20E94911286E20E946D1382E00E94D5
:1010E000C3131ECF80913F0181110FC080913C013D
:1010F00090913D010E94FE1D883C910530F487E2ED
:101100000E94911287E20E946D1380E2E8CF0C9456
:10111000EF0A0C94F10A0C94E2060C948B080895E3
:10112000972F70E02EE0929F600D711D1124FB013E
:1011300096E4899FE00DF11D1124EE0FFF1FE45589
:10114000FF4F859194910895FC01EE0FFF1FE45924
:10115000F64F8591949108950E9490080E941F0A6D
:10116000811520E4920708F08DC0811540E39407B3
:1011700008F0E8C0803E910508F071C0803C910500
:1011800008F0CCC0883A910580F4853A910508F0C2
:10119000CAC08130910509F46EC020F084309105F9
:1011A00008F069C090E080E008958D3B9105D0F78C
:1011B000883A910509F404C1893A910509F403C1FB
:1011C0008A3A910509F402C18B3A910509F401C1EB
:1011D0008C3A910509F400C18B3B910509F4FFC0DD
:1011E0008C3B910509F4FEC08D3A910509F4FDC0D0
:1011F000803B910509F4FCC08E3A910509F4FBC0CF
:101200008F3A910509F4FAC0813B910509F4F9C0C0
:10121000823B910509F4F8C0833B910509F4F7C0BE
:10122000843B910509F4F6C0853B910509F4F5C0AE
:10123000863B910509F4F4C0873B910509F4F3C09E
:10124000883B910509F4F2C0893B910509F4F1C08E
:101250008A3B910509F4F0C080E094E408958F3F43
:10126000910509F048F4803F910508F067C0883E79
:10127000910508F097CF0895811520E2920708F0B4
:101280005FC00895811543E5940760F5811522E557
:10129000920708F062C0811541E5940708F058C034
:1012A000811520E5920708F450C09C0154E0369562
:1012B00027955A95E1F7922F9370482F437021E0BC
:1012C00030E002C0220F331F4A95E2F73C68392B09
:1012D00086958695837040E2849FC0011124822BFD
:1012E000932B0895811545E5940750F4811524E565
:1012F000920708F446C0982F8827846F906A089553
:10130000811546E5940708F450C09C0130569F7043
:101310002115304108F046CF90620895805C910914
:101320000E94A4080895853A910509F443C0863ABD
:10133000910509F042C082E890E40895906508950F
:101340009F70EECF9927906C08959F70906A0895D2
:10135000982F8827816F906A0895AC0143705527B4
:1013600021E030E002C0220F331F4A95E2F7869554
:10137000869540E2849FC0011124822B932B9C68A8
:101380000895AC014370552721E030E002C0220FE0
:10139000331F4A95E2F78695869540E2849FC00107
:1013A0001124822B932B9A680895982F88278827D9
:1013B0009F71B2CF81E890E4089583E890E40895A6
:1013C00082EE94E4089589EE94E408958AEE94E41C
:1013D000089585EB94E4089586EB94E4089583EBF7
:1013E00094E4089584EB94E4089587EB94E40895DD
:1013F0008CEC94E408958DEC94E4089583E895E4EE
:1014000008958AE895E4089582E995E4089584E9C9
:1014100095E4089581E296E4089583E296E40895C0
:1014200084E296E4089585E296E4089586E296E4DF
:10143000089587E296E408958AE296E41CCF823804
:10144000910549F1B0F48133910509F45CC048F489
:101450008932910509F452C08A32910509F458C0C5
:1014600008958533910509F444C08933910599F0B5
:101470000895833E910531F138F4803E910591F055
:10148000823E9105B1F00895863E910511F1873EA7
:10149000910541F1089520916B022370C9F080EE0F
:1014A00090E0089520916B0220FF12C089E390E044
:1014B000089520916B0222FF0BC024FF2EC090E004
:1014C00080E0089520916B0222FD2AC024FDF7CF11
:1014D000089520916B0223FFFBCF24FDF0CF87EE10
:1014E00090E0089520916B0223FFF0CF86EE90E00C
:1014F000089520916B0225FD16C0089520916B027E
:1015000025FD14C0089520916B0226FD12C0089598
:1015100020916B0226FD10C0089583EE90E008959F
:1015200082EE90E0089589E290E0089585E390E0EE
:1015300008958AE290E0089581E390E0C9CF08958C
:101540000F931F93CF938C01FB018281811106C001
:10155000C1E08C2FCF911F910F910895C0914D0143
:10156000C11125C00531104799F70E949F0A81E0FB
:1015700080934D010E94F21D90934C0180934B018A
:1015800010924001109242011092410110924401C8
:1015900010924301109246011092450110924801A9
:1015A0001092470110924A0110924901D2CF8091C6
:1015B0004B0190914C010E94FE1D883C910540F624
:1015C00080914001E82FF0E0EE0FFF1FEF5BFE4F30
:1015D000118300838F5F80934001C0E0BACF0C94E9
:1015E000DE060C94DF06CF93DF9385B7806885BF56
:1015F00085B7806885BFA2E2B1E047E251E0C1E073
:10160000D0E08D91E82FE295EF70F0E061A18F704E
:101610009E0101C0220F8A95EAF7922F909596239A
:1016200091A382A1822B82A34A175B0751F7A4E101
:10163000B1E061E070E08D91E82FE295EF70F0E0AD
:1016400041A18F709B0101C0220F8A95EAF7922F6A
:101650009095942391A382A1822B82A381E0A23250
:10166000B80749F7109259011092580110924F0192
:1016700010924E0110925B0110925A01109251018A
:101680001092500110925D0110925C011092530172
:101690001092520110925F0110925E01109255015A
:1016A0001092540110926101109260011092570142
:1016B00010925601DF91CF910C9487086F927F9220
:1016C0009F92AF92BF92CF92DF92EF92FF920F93D1
:1016D0001F93CF93DF93CEE4D1E002E211E0EE243A
:1016E000E394F12CBB24B394C880D980198218826A
:1016F000D8018D918D01E82FE295EF70F0E091A176
:101700008F70970101C0220F8A95EAF7892F822BEB
:1017100081A382A1A22EA0948A2182A3B0EABA95C5
:10172000F1F784E1682E81E0782E90E080E0D3012B
:101730007D913D01472F42954F7050E0DA01909620
:101740009C90488159817F70D70102C0AA0FBB1FAE
:101750007A95E2F7BD01692109F06FC0B701082E43
:1017600002C0660F771F0A94E2F7462B572B598366
:10177000488301968E309105D1F681A18A2181A3FB
:1017800082A1282B22A388819981C816D90641F00D
:10179000B09262010E94F21D9093640180936301F4
:1017A0002296B1E007321B0709F09ECF80916201BB
:1017B000882391F180916301909164010E94FE1D44
:1017C000069750F180914E0190914F0190935901ED
:1017D00080935801809150019091510190935B0149
:1017E00080935A01809152019091530190935D0131
:1017F00080935C01809154019091550190935F0119
:1018000080935E0180915601909157019093610100
:1018100080936001109262010E94890881E0DF914B
:10182000CF911F910F91FF90EF90DF90CF90BF90DD
:10183000AF909F907F906F90089570E060E095CF9B
:10184000E82FF0E0EE0FFF1FE85AFE4F80819181F4
:101850000895089531B3242F2095232331B3432BCA
:101860003FB7F894FC01680F791FE617F70711F4EA
:101870003FBF0895819198E041BB000000C087FF01
:1018800021BB880F000000C000C000C021BB00C009
:101890009A9591F7EACF20B3242B20BB9B01220F0E
:1018A000331F620F731F0E942A0C87EC90E0019790
:1018B000F1F700C00000089540E40C944B0CCF9267
:1018C000DF92EF92FF920F931F93CF93DF93E90183
:1018D000662309F466C0E42EF12CEFEFF0E0E61B7E
:1018E000F109EE9D8001EF9D100DFE9D100D11245C
:1018F000212FE12FFF27EE1AFF0A5CE3C52ED12C22
:10190000B6010E94082AFB01BC01E69EC001E79EC9
:10191000900DF69E900D1124B6010E94082AE23027
:10192000F10589F168F4812F262F210F309781F07E
:10193000242F461B319761F080E020E040E008C092
:10194000E430F10551F128F1842F861B3597A1F77A
:10195000E42FF0E0E758F54F4491E22FF0E0E7582C
:10196000F54F9491E82FF0E0E758F54FE491498363
:101970009883EA83DF91CF911F910F91FF90EF90B1
:10198000DF90CF900895862F810FE42F412F2E2FC7
:10199000DFCFE42FE61B842FF9CF842F462F410F92
:1019A000D7CF842F242FD4CF88E090E00C943E2A08
:1019B000AB01BC0188E090E00C945C2AEDE4F2E01D
:1019C00083E0808310924E028FEF82838383609145
:1019D0004D0270914E0280914F02909150020C94F2
:1019E000D80C80914D02E5E5F2E080FF06C066E08C
:1019F00070E085E592E00C945C0C118210821282FA
:101A0000339682E0E736F807C1F7F1CFE5E5F2E07B
:101A1000818360834283339692E0E736F907C1F70A
:101A20000C94F10CEF92FF920F931F93CF93DF93DF
:101A300000D01F92CDB7DEB7182FE92EF62E042F57
:101A400080914D0290914E02A0914F02B0915002B0
:101A50008093510290935202A0935302B093540288
:101A600080914D0280FF1FC09E012F5F3F4F812F4D
:101A70009E2D0E945F0C8091510210FB87F980938C
:101A800051021695809152028078812BE0FA87F9F5
:101A900080935202F0925302009354024B81698169
:101AA0008A810E94060D0F900F900F90DF91CF91C9
:101AB0001F910F91FF90EF9008950F931F93CF9375
:101AC000DF93EC01062F142F90914D0290FF43C03D
:101AD000892F8E77823021F5CE010E94120D8091E0
:101AE0004D02C0FB87F980934D02C69580914E024E
:101AF0008078C82BD0FBC7F9C0934E0200934F02E9
:101B00001093500260914D0270914E0280914F02ED
:101B100090915002DF91CF911F910F910C94D80CAE
:101B2000892F86958F732EE3280F2F73243018F496
:101B300010915002D4CF865C8F73893080F6991F44
:101B40009927991FD0914E02CD2FCC0FC92BD7FBCF
:101B5000DD27D0F9C4CFDF91CF911F910F91089568
:101B6000EDE4F2E02081221F2227221F30914E0255
:101B7000432F440F842F822B37FB992790F9089627
:101B800068E671E00E941C2A438162810C945D0D1D
:101B900020914D02221F2227221F30914E02432FF7
:101BA000440F842F822B37FB992790F988309105B9
:101BB00040F4805A9E4F4091500260914F020C9425
:101BC0005D0D089768E671E00E941C2AF4CF6091D1
:101BD0004F02683F90F4685F80914D02881F88270C
:101BE000881F90914E02292F220F97FB992790F979
:101BF00040915002822B0C945D0D6FEFEDCF609100
:101C00004F02683090F0685080914D02881F8827FD
:101C1000881F90914E02292F220F97FB992790F948
:101C200040915002822B0C945D0D60E0EDCF40910D
:101C30005002483F90F4485F80914D02881F8827EA
:101C4000881F90914E02292F220F97FB992790F918
:101C500060914F02822B0C945D0D4FEFEDCF4091C0
:101C60005002483090F0485080914D02881F8827DC
:101C7000881F90914E02292F220F97FB992790F9E8
:101C800060914F02822B0C945D0D40E0EDCF90915E
:101C90004D0290FF3BC09178811126C092609093D5
:101CA0004D0260914D0270914E0280914F029091D1
:101CB00050020E94D80C80914D02982F9E7792304E
:101CC000D9F410927A01881F8827881F90914E02BC
:101CD000292F220F97FB992790F94091500260918C
:101CE0004F02822B0C945D0D893110F09063D7CF99
:101CF0008F73880F982BD3CF982F9695925C9F73F4
:101D0000963108F791E090937A01DDCF08958091A4
:101D1000200281608093200281E080937B010E94F9
:101D2000511D811104C00E94301D0E94DE0C0E94D2
:101D3000D40C60934D0270934E0280934F029093A7
:101D400050026E7761F40E94DE0C0E94D40C609306
:101D50004D0270934E0280934F029093500281E0A7
:101D600080937A0180914D0280FF04C086958F7325
:101D70000C94470E089580914D0286958F738F5F66
:101D8000893108F081E00C94470E90914D02892F23
:101D90008E7F90FF816080934D0260914D02709123
:101DA0004E0280914F02909150020E94D80C809177
:101DB0004D0280FF04C086958F730C94470E1092DD
:101DC0007A012FEF80E792E0215080409040E1F7C8
:101DD00000C000000C94F10CCF93C82F80917801C3
:101DE000909179010E94FE1DEC2FF0E0EB58F64F28
:101DF000E491E817190609F010F50E94F21D90937E
:101E0000790180937801E0917701F0E0E758F64F8F
:101E1000449180914D02881F8827881F90914E021F
:101E2000292F220F97FB992790F960914F02822B5F
:101E30000E94120D809177018F5F80937701CF917F
:101E40000895CF93C82F80917501909176010E94DB
:101E5000FE1DEC2FF0E0EE58F64FE491E81719065E
:101E600009F0E8F40E94F21D9093760180937501C9
:101E70004091500260914F028091730190917401E2
:101E80000E94120D8091730190917401019668E691
:101E900071E00E94082A9093740180937301CF919E
:101EA0000895CF92DF92FF920F931F93CF93DF930A
:101EB000F82E80917101909172010E94FE1DEF2D0C
:101EC000E695F0E0EE58F64FE491E817190609F0B0
:101ED000A8F50E94F21D909372018093710105E5AF
:101EE00012E0D0E0C0E088E6C82EDD24D3948091D3
:101EF0006F01909170018C0F9D1FB6010E94082AFE
:101F000098014091500260914F020E945F0CEC9644
:101F10000D5F1F4FC83681E0D80749F70E94F10CCA
:101F200080916F0190917001F0FE10C00196BE018A
:101F30000E94082A9093700180936F01DF91CF91E6
:101F40001F910F91FF90DF90CF9008950197F2CFEE
:101F5000AF92BF92CF92DF92EF92FF920F931F93B7
:101F6000CF93DF93C82FFF24FA9480FD02C0FF2493
:101F7000F39480916D0190916E010E94FE1DC695B3
:101F8000EC2FF0E0E159F64FE491E817190611F053
:101F900008F053C00E94F21D90936E0180936D0172
:101FA000C5E5D2E010E000E097E0C92ED12C1982FF
:101FB00018821A8287E0A82EB12CE12C80916C0146
:101FC0008E0D87FD8A5F082E000C990B08171907E4
:101FD000E9F4209150022A9DC0012B9D900D1124FF
:101FE000B6010E941C2A462F80914D02881F882727
:101FF000881F90914E02592F550F97FB992790F902
:102000009E0160914F02852B0E945F0CEF0C81E0D6
:10201000A81AB10899F60F5F1F4F239606301105D5
:1020200031F60E94F10C80916C0191E0F91212C01E
:1020300081110EC085E080936C01DF91CF911F91DB
:102040000F91FF90EF90DF90CF90BF90AF900895E9
:102050008150F1CF90E00196B8010E941C2AEBCF8D
:10206000BF92CF92DF92EF92FF920F931F93CF9385
:10207000DF93CDB7DEB762970FB6F894DEBF0FBE21
:10208000CDBF182F80916A0190916B010E94FE1DB7
:10209000E12FF0E0E459F64FE491E817190611F04A
:1020A00008F07AC00E94F21D90936B0180936A0140
:1020B0008E010F5F1F4FF12CE12C6801D8011196A2
:1020C0001C9211971C9212961C92B12C90910001B7
:1020D00080916901B99E800D112486300CF085E055
:1020E00087FD80E0082E000C990BE816F906A1F494
:1020F00080914D02881F8827881F90914E02592F8A
:10210000550F97FB992790F99801409150026091E3
:102110004F02852B0E945F0CB394B7E0BB12D6CF61
:10212000EFEFEE1AFE0A0D5F1F4FF6E0EF16F10417
:1021300029F625E532E009E010E056E0E52EF12C25
:10214000C801B7010E941C2AFC01EE0FFF1FE80F17
:10215000F91FEC0DFD1D8181D90111968C9311970A
:1021600080818C93828112968C930F5F1F4F2D5F1D
:102170003F4F0F30110521F70E94F10C90910001A3
:10218000809169019130E1F48A3FB4F489EF809342
:1021900069018FEF8093000162960FB6F894DEBF5D
:1021A0000FBECDBFDF91CF911F910F91FF90EF90A8
:1021B000DF90CF90BF900895815080936901ECCF5C
:1021C0008D302CF08CE08093690181E0E3CF8F5F4C
:1021D000F4CFCF93DF9380916701909168010E94C3
:1021E000FE1D883E934028F10E94F21D90936801E5
:1021F00080936701809165019091660101968170DD
:1022000099279093660180936501C5E5D2E09E0110
:102210004091500260914F0290E080E00E945F0C7C
:10222000239682E0C736D80791F7DF91CF910C94BF
:10223000F10CDF91CF91089580917A01882371F19B
:1022400080914D0286958F739EE3980F9F73943013
:1022500018F482500C94EC0E9AE3980F9F7393300D
:1022600018F486500C94210F97E3980F9F739630C3
:1022700018F489500C94510F91E3980F9F73963086
:1022800018F48F500C94A80F9BE2980F9F73933013
:1022900018F485510C9430100C94E9100895909323
:1022A0008101809380010895E0918001F091810186
:1022B000309721F00190F081E02D099480E008959D
:1022C000E0918001F0918101309721F00280F3814B
:1022D000E02D09940895E0918001F09181013097FB
:1022E00021F00480F581E02D0994089520917E016C
:1022F00030917F012817390771F090937F01809307
:102300007E01E0918001F0918101309721F00680FB
:10231000F781E02D0994089520917C0130917D0191
:102320002817390771F090937D0180937C01E0912B
:102330008001F0918101309721F00084F185E02D3A
:102340000994089508950C94A2110E94E91D0E9419
:10235000F30A0E94BA1E0C94870E5F926F927F92CE
:102360008F929F92AF92BF92CF92DF92EF92FF92A5
:102370000F931F93CF93DF93CDB7DEB72A970FB696
:10238000F894DEBF0FBECDBF0E945E0B93E8A92E6E
:1023900091E0B92E10E000E088248394912C502E17
:1023A000802F0E94200C7C01F501C190D1905F012B
:1023B000C816D90609F45EC08091200281FD0E94F2
:1023C000290C90E080E0CE24DF243401082E02C0E6
:1023D000660C771C0A94E2F7960126213721232BFD
:1023E00009F443C08E835F82E620F72081E0EF2866
:1023F00009F480E088870E94F21D8160782F9A8717
:1024000089874E815F8168858A850E946712000FE7
:10241000111FF801ED57FE4F8081918168267926C2
:10242000718260820E943E210E945411909182012B
:102430008917B9F10E945411809382012A960FB630
:10244000F894DEBF0FBECDBFDF91CF911F910F91EA
:10245000FF90EF90DF90CF90BF90AF909F908F90C4
:102460007F906F905F900C948D0801968E3091054F
:1024700009F0ABCF0F5F1F4F0530110509F08FCF6B
:102480008FEF89838A831B820E94F21D8160782FDF
:102490009D838C8349815A816B818D810E94671253
:1024A000C1CF2A960FB6F894DEBF0FBECDBFDF9125
:1024B000CF911F910F91FF90EF90DF90CF90BF9041
:1024C000AF909F908F907F906F905F900895CF9383
:1024D000DF93CDB7DEB72B970FB6F894DEBF0FBEF4
:1024E000CDBF4F83588769877A878B871E821D826D
:1024F00085E0FE013796DE01119601900D928A95D6
:10250000E1F749815A816B817C818D819E812B9677
:102510000FB6F894DEBF0FBECDBFDF91CF910C9404
:10252000E418882309F4D8C0823871F40E94541149
:1025300081FDD2C089E30E94391C0E94011D89E3FC
:102540000E94761C0C94011D833859F40E9454118A
:1025500080FDC2C083E50E94391C0E94011D83E5F5
:10256000EFCF843859F40E94541182FDB5C087E43E
:102570000E94391C0E94011D87E4E2CF9CEF980F56
:10258000913A18F40E94391CDDCF90E2980F9830F0
:1025900050F4877091E001C0990F8A95EAF7892F6E
:1025A0000E94B81CCFCF9BE5980F933070F4853A0A
:1025B00031F0863A39F083E890E00C94761181E8A6
:1025C00090E0FBCF82E890E0F8CF98E5980F953146
:1025D00008F082C0883A09F440C0893A09F440C042
:1025E0008A3A09F440C08B3A09F440C08C3A09F4A5
:1025F00040C08B3B09F440C08C3B09F440C08D3A8D
:1026000009F440C0803B09F440C08E3A09F440C050
:102610008F3A09F440C0813B09F440C0823B09F481
:1026200040C0833B09F440C0843B09F440C0853B73
:1026300009F440C0863B09F440C0873B09F440C020
:10264000883B09F440C0893B09F440C08A3B09F447
:1026500040C090E080E00C948C1182EE90E0FBCFC3
:1026600089EE90E0F8CF8AEE90E0F5CF85EB90E030
:10267000F2CF86EB90E0EFCF83EB90E0ECCF84EBF2
:1026800090E0E9CF87EB90E0E6CF8CEC90E0E3CFF1
:102690008DEC90E0E0CF83E891E0DDCF8AE891E037
:1026A000DACF82E991E0D7CF84E991E0D4CF81E21B
:1026B00092E0D1CF83E292E0CECF84E292E0CBCF22
:1026C00085E292E0C8CF86E292E0C5CF87E292E051
:1026D000C2CF8AE292E0BFCF0895882309F44BC0AD
:1026E000823871F40E94541181FF45C089E30E9431
:1026F000391C0E94011D89E30E94761C0C94011D67
:10270000833859F40E94541180FF35C083E50E943C
:10271000391C0E94011D83E5EFCF843859F40E94D3
:10272000541182FF28C087E40E94391C0E94011DB9
:1027300087E4E2CF9CEF980F913AF0F290E2980F85
:10274000983050F4877091E001C0990F8A95EAF7AC
:10275000892F0E94BE1CD2CF9BE5980F933020F4A6
:1027600090E080E00C947611885A853120F490E056
:1027700080E00C948C110895882321F00E94B81CED
:102780000C94011D0895882321F00E94BE1C0C9416
:10279000011D08958F929F92AF92BF92DF92EF92A8
:1027A000FF920F931F93CF93DF937C01D62FC72FF8
:1027B000FC01058102950F70128111110E94D71C36
:1027C0000E94321CD82E882371F0112321F180E25F
:1027D0008D0F883000F182E00E941C1C0E94321C88
:1027E00091E0D82ED926EC2FE295EF70F0E0E5507D
:1027F000FC4E0C94302A0D140D145D145D149F14BE
:10280000BB143A143A14C6143A145E155E15D11569
:102810003A143A14DA15D12CE6CF0C2F0F70C07F82
:1028200011F00295007F1123A9F0002359F080E2F6
:102830008D0F883010F0D11109C0802F0E94B81C74
:102840000E94011D8D2F0E94911214C0802F0E94A2
:10285000C91CF6CF8D2F0E946D13002359F080E222
:102860008D0F883010F0D11124C0802F0E94BE1C23
:102870000E94011DDD2009F4A4C10E940F1C80FDEF
:10288000A0C1F70112820E94091C0E94831AC7018D
:102890000E94ED150E94091CDF91CF911F910F91AD
:1028A000FF90EF90DF90BF90AF909F908F900C942F
:1028B000A41A802F0E94CF1CDBCFFC2FFF70BF2EED
:1028C000C07FC03219F0B29480EFB822DD2369F0E6
:1028D000D13029F1112369F1002359F0F7018581E5
:1028E00080FFB0CF8F70858304C0112361F0011188
:1028F00004C08B2D0E94BC13BDCF8B2D0130D1F7AE
:102900000E94EB1CB7CF011106C00E94EE1C8B2D5C
:102910000E94C313AFCF013009F4ACCFF6CF11231F
:1029200021F0063008F0A6CFE4CF053008F0A2CFA2
:10293000EECF002361F38D2F0E946D139BCF8C2F60
:1029400086958695837069F0813009F093CF8D2F3D
:102950009C2F9370111102C090E080E00E948C11B6
:1029600089CF8D2F9C2F9370111102C090E080E0D1
:102970000E9476117FCF8D2F112329F00E944720CE
:102980000E94332177CF0E94AF20FACF8C2F837023
:1029900009F047C011116ECF2D2F22952695277073
:1029A000220F220F6D2F6F70862E912CB12CA12C2F
:1029B000022E04C0880C991CAA1CBB1C0A94D2F7D6
:1029C00060E070E0CB01D4FF0FC06FE070E080E00A
:1029D00090E004C0660F771F881F991F2A95D2F7D1
:1029E0006095709580959095C695C695C370C230D8
:1029F00051F080F4682979298A299B29C13071F026
:102A00000E942C1A37CF682979298A299B290E948C
:102A1000481A30CF0E942C1AC501B4010E94101A26
:102A200029CF8695112311F08C2F8170882309F40A
:102A300021CF2D2F229526952770220F220F6D2F43
:102A40006F70862E912CB12CA12C022E04C0880C04
:102A5000991CAA1CBB1C0A94D2F760E070E0CB0161
:102A6000D4FF0FC06FE070E080E090E004C0660F1C
:102A7000771F881F991F2A95D2F7609570958095CA
:102A80009095C695C695C370C23051F080F4682900
:102A900079298A299B29C13071F00E94061BEACE50
:102AA000682979298A299B290E94221BE3CE0E944A
:102AB000061BC501B4010E94EA1ADCCEE0E2ED0F6C
:102AC000E53108F062C0F0E0E859FA4E0C94302A83
:102AD0007D157D157D157D157D157D157D157D1566
:102AE0007D157D157D157D157D157D157D157D1556
:102AF0008A1598159F15A615B015DF708C2F8F714C
:102B0000112321F00E94831A8D2FF4CE0E94A41A63
:102B10008D2FFECE112341F0053008F0ABCE8C2F67
:102B20008F710E94C91AA6CE063008F0A3CEF7CF47
:102B30008C2F8F71112339F00E94831A9BCE8C2F1A
:102B40008F711123C9F30E94A41A94CE112329F086
:102B50008C2F8F710E946E1A8DCE0E94641A8ACEBD
:102B6000112349F0CF718C2F0E94831A63E08C2FC0
:102B70000E94131C7FCE81E00E941C1C023008F4CE
:102B800079CE82E00E941C1C75CE112329F0011120
:102B900059CE8C2F8F71D0CF0111CDCE8C2F8F714C
:102BA000D2CF4C2F4F706D2FC7010E94DB060E94C1
:102BB0008D1960CE4C2F4F706D2FC7010E948F086A
:102BC00059CEDF91CF911F910F91FF90EF90DF9041
:102BD000BF90AF909F908F9008950F931F93CF93C6
:102BE000DF93EC01988189812B813C81232B39F083
:102BF0008F3F19F481E09F3F19F080E001C081E030
:102C000080FD17C0CE010E94F406882391F06881F0
:102C100079818A810E94E51B8C010E943E1B0E94E3
:102C2000051AB801CE01DF91CF911F910F910C943D
:102C3000CA13DF91CF911F910F9108950E94D71C65
:102C40000E94E81C0E94AA1C0E94011D0E94E02113
:102C50000E94332190E080E00E94761190E080E0B5
:102C60000C948C110E94C61C0C941E160E94DB1B37
:102C7000E92FE295EF70E250EE30E0F4F0E0ED5B2A
:102C8000F94E0C94302A511651165A165A165C16E3
:102C90005A165A165A165116511661165A165A16BF
:102CA0006116803F19F020F4803E20F481E0089501
:102CB000843FE1F380E00895803EC0F3813FD1F787
:102CC000F5CF93FB882780F90895CF93DF9300D049
:102CD00000D01F92CDB7DEB70F900F900F900F90DE
:102CE0000F90DF91CF910895CF93DF9300D000D064
:102CF00000D0CDB7DEB726960FB6F894DEBF0FBE74
:102D0000CDBFDF91CF9108951F93CF93DF93C091F3
:102D10008E0116E080918F018C1304C0DF91CF915A
:102D20001F910895D0E01C9FF0011D9FF00D11240C
:102D3000E057FE4F4081518162817381848195818A
:102D40000E9474162196C770E5CF4091C001509142
:102D5000C1016091C2017091C3018091C401909141
:102D6000C5010C9474161F93CF93DF938091C50116
:102D7000807FD1F48091C2018823B1F080918E01CF
:102D8000D0918F01B091C001C091C1014091C301A8
:102D90005091C401A1E0BF3F09F0A0E0BA016095E5
:102DA000709516E0D81304C0DF91CF911F9108955C
:102DB00021E04115510521F02A2FCF3F09F020E0F5
:102DC00090E020FD38C0189FF001199FF00D1124EC
:102DD000E057FE4F21812C132EC020812B132BC0D6
:102DE0002281211128C0238134812417350700F165
:102DF000241B350B283C3105F0F42091C5012F70C0
:102E000020612093C50126E0289FF001299FF00D45
:102E10001124EB56FE4F80818F708061808380EC9F
:102E200091E00E94ED15DF91CF911F910C948416D3
:102E3000260F371FDFCF01968770B4CFAF92BF92B6
:102E4000CF92DF92EF92FF920F931F93CF93DF9376
:102E5000CDB7DEB761970FB6F894DEBF0FBECDBF1A
:102E60008C0185E0F801DE011D9601900D928A9596
:102E7000E1F7D8014C9111965C9111971296EC9064
:102E80003091C0016091C1018091C3019091C40152
:102E900021E0009731F06F3F19F421E03F3F09F046
:102EA00020E0B22FB170BB2E20FD80C1F801C3809D
:102EB000D480A090C201AA2009F427C1C816D9065F
:102EC000D0F1D601A81BB90BCD01FF24F394883CA7
:102ED000910508F0F12C8091C501982F907FFF207B
:102EE00009F4CAC0911187C0FE2C651329C03413A0
:102EF00027C0E11025C08F7080618093C5010E94BA
:102F0000A51680EC91E00E94ED158091C501F801B5
:102F100085838F2D61960FB6F894DEBF0FBECDBFAF
:102F2000DF91CF911F910F91FF90EF90DF90CF90A5
:102F3000BF90AF900895809590958C0D9D1DC5CF45
:102F400081E0CD2831F05F3F19F481E04F3F09F077
:102F500080E080FD24C081E08E25F82FF170DF2E07
:102F600080FF3FC080918E0120918F0136E0821357
:102F700018C04D875E878D859E850E94DB1B292F9B
:102F800022952F70223008F1243030F59F7009F11E
:102F9000D80115969C91907FE1F4FB2CBACF80E08C
:102FA000DCCF90E0389FF001399FF00D1124E057FD
:102FB000FE4F6181561306C06081461303C06281D3
:102FC0006E110FC001968770D2CF9F7011F08823C9
:102FD00021F3805E883008F3C8010E94ED15BD2CF6
:102FE000DCCFEE2009F495CF8091C50181608093FC
:102FF000C501F12C8ECF651312C0341310C0E1103F
:103000000EC0F8018583C8010E94ED1586E0F80125
:10301000A0ECB1E001900D928A95E1F741C04D8797
:103020005E878D859E850E943616882309F4C8C068
:10303000EE2009F4C5C08091C501803270F0209166
:10304000C0013091C10138872F831986DB86CA867B
:103050008C87CE0107960E94ED1586E0F801A0EC62
:10306000B1E001900D928A95E1F70E94B3160E949B
:10307000A516FF24F3944DCF911115C07C2DD98A4C
:10308000C88A6E2D89890E94651680EC91E00E94A5
:10309000ED1586E0E0ECF1E0DF011D928A95E9F79D
:1030A0000E94A51636CF651312C0341310C0E1106C
:1030B0000EC0F8018583C8010E94ED15E0ECF1E037
:1030C00086E0DF011D928A95E9F7FA2C22CF4D8721
:1030D0005E878D859E850E943616882309F470C010
:1030E000EE2009F46DC08091C501803208F4B5CF9F
:1030F0002091C0013091C1013A8329831B82DD8276
:10310000CC828E83CE010196A6CFC816D90638F19F
:10311000F601E81BF90BCF01F12C883C910508F072
:103120003DC0FE2CEE2009F44BC0651326C03413BD
:1031300024C08091C50180FD17C0982F907FA1F019
:10314000D80115968C931597903F09F45CCF982F72
:10315000907F905F8F70892B15968C9354CF8095BC
:1031600090958C0D9D1DD8CF86E0F801A0ECB1E0C4
:1031700001900D928A95E1F7CCCE4D875E878D85C3
:103180009E850E943616811168CF8091C5018160AD
:103190008093C501C8010E94ED15BBCE7C2DD98A54
:1031A000C88A6E2D89890E94651673CFEE2041F082
:1031B0004D875E878D859E850E94361681114DCF85
:1031C000C8010E94ED1555CF1F93CF93DF93CDB764
:1031D000DEB72C970FB6F894DEBF0FBECDBF4F837E
:1031E000588769877A878B879C87CE0107960E94CC
:1031F0001E17882309F442C09F8188852A853B8554
:10320000232B39F08F3F19F481E09F3F19F080E0C4
:1032100001C081E080FD08C04F81588569857A85AD
:103220008B859C850E94741616E080918E0190918A
:103230008F01891709F467C0819FC001112480574D
:103240009E4F0E941E17882309F45DC0E0918E01F5
:103250001E9FF0011124E057FE4F40815181628191
:103260007381848195810E94741680918E0190E013
:1032700001968770992780938E01D7CF86E0FE0153
:103280003796DE01119601900D928A95E1F79F81A4
:1032900088852A853B85232B39F08F3F19F481E0FF
:1032A0009F3F19F080E001C081E080FDBDCF2091FB
:1032B0008F0130E0C90101968770992740918E01F6
:1032C0004817190699F096E0929FD001939FB00D90
:1032D0001124A057BE4FFE01319601900D929A9590
:1032E000E1F780938F010E9484169ECF0E943216D0
:1032F00010928F0110928E0186E0E0ECF1E0DF0188
:103300001D928A95E9F72C960FB6F894DEBF0FBE92
:10331000CDBFDF91CF911F910895EF92FF920F9350
:103320001F93CF93DF938C01892B81F0F12CEE2436
:10333000E394E8012196F8018491843770F4843095
:1033400008F05FC08130B1F08230A1F1DF91CF9100
:103350001F910F91FF90EF900895853709F44CC0AD
:1033600008F43DC09CE7980F903780F78F770E9454
:103370006D1349C00E5F1F4FFE01849190E2980FBC
:10338000983060F48770FE2D01C0FF0F8A95EAF730
:103390008F2F0E94DA1C0E94011D02C00E94911210
:1033A0008F2D815030F2EFE9FFE03197F1F700C047
:1033B0000000F7CF0E5F1F4FFE01849190E2980F3F
:1033C000983050F48770FE2D01C0FF0F8A95EAF700
:1033D0008F2F0E94E01CDFCF0E946D13E1CF0E5FA4
:1033E0001F4FFE01C491C150D8F28FE99FE00197B1
:1033F000F1F700C00000F7CF0E5F1F4FFE01F49001
:10340000CFCF0E9491128E01CBCF08956093F70128
:103410007093F8018093F9019093FA010C941E16B1
:103420000F931F930091F7011091F8012091F9017A
:103430003091FA01DC01CB01802B912BA22BB32B15
:103440008093F7019093F801A093F901B093FA01EA
:103450001F910F910C941E160F931F930091F7016B
:103460001091F8012091F9013091FA01DC01CB01B2
:1034700080239123A223B3238093F7019093F80133
:10348000A093F901B093FA011F910F910C941E16AD
:103490000F931F930091F7011091F8012091F9010A
:1034A0003091FA01DC01CB0180279127A227B327B5
:1034B0008093F7019093F801A093F901B093FA017A
:1034C0001F910F910C941E161092F3011092F401AB
:1034D0001092F5011092F6010C941E1641E050E096
:1034E00060E070E004C0440F551F661F771F8A9587
:1034F000D2F74093F3015093F4016093F501709378
:10350000F6010C941E1641E050E060E070E004C04B
:10351000440F551F661F771F8A95D2F78091F301DC
:103520009091F401A091F501B091F601842B952BB7
:10353000A62BB72B8093F3019093F401A093F50190
:10354000B093F6010C941E1641E050E060E070E08C
:1035500004C0440F551F661F771F8A95D2F7409508
:103560005095609570958091F3019091F401A09130
:10357000F501B091F60184239523A623B723809308
:10358000F3019093F401A093F501B093F6010C942C
:103590001E1641E050E060E070E004C0440F551F8B
:1035A000661F771F8A95D2F78091F3019091F401FD
:1035B000A091F501B091F60184279527A627B7279A
:1035C0008093F3019093F401A093F501B093F60179
:1035D0000C941E160F931F930091F3011091F401A8
:1035E0002091F5013091F601DC01CB01802B912B6C
:1035F000A22BB32B8093F3019093F401A093F501D8
:10360000B093F6011F910F910C941E160F931F9308
:103610000091F3011091F4012091F5013091F60130
:10362000DC01CB0180239123A223B3238093F301F8
:103630009093F401A093F501B093F6011F910F91BF
:103640000C941E160F931F930091F3011091F40137
:103650002091F5013091F601DC01CB018027912703
:10366000A227B3278093F3019093F401A093F5016F
:10367000B093F6011F910F910C941E1608952EE041
:10368000929F800D1124982F977071E001C0770FE1
:103690009A95EAF786958695869525E0829FC001E2
:1036A000112450E040E0A62FB0E0FC01E40FF51F2C
:1036B000EA53FE4F60819D01042E02C03695279586
:1036C0000A94E2F7217021952627272326272083B5
:1036D0004F5F5F4F4530510541F708952EE0929FAF
:1036E000800D1124982F977086958695869525E0F4
:1036F000829FA001112470E060E080E0FA01E60FF3
:10370000F71FEA53FE4F208130E0092E02C03695A4
:1037100027950A94E2F721703327062E01C0220F65
:103720000A94EAF7822B6F5F7F4F6530710531F79E
:103730000895BF92CF92DF92EF92FF920F931F9363
:10374000CF93DF938C01C090F301D090F401E0900F
:10375000F501F090F6018091F7019091F801A091A8
:10376000F901B091FA01C82AD92AEA2AFB2ACFE145
:10377000D0E0BC2ED701C6010C2E04C0B695A7958B
:10378000979587950A94D2F780FD0EC0219788F708
:10379000B12C8B2DDF91CF911F910F91FF90EF9066
:1037A000DF90CF90BF900895B8018C2F0E94AC0895
:1037B000019761F3EECFCF93DF93EC010E94991B49
:1037C000BE01DF91CF910C94AC081F93CF93DF9390
:1037D000EB0190918D01992331F0CB01DF91CF91D5
:1037E0001F910C94DB1B882379F0CB010E94991B5D
:1037F000182F682FCE010E943F1BBE01812FDF9141
:10380000CF911F910C94AC08CB010E946E1B182F16
:10381000F4CF8091FB0185958595859508958091DC
:10382000FB018770089598E0899F90011124622B15
:103830006093FB010C94831A9091FB01809589237E
:103840008093FB01282F277061F4282F082E000C8D
:10385000330B9217130629F08595859585950C9461
:10386000A41A08959091FB01977081E009F480E01B
:103870000895909113019923E1F090916B0297FFC5
:1038800018C0E82FE695E695E695EF3139F12091DD
:10389000010130910201E20FF32FF11D877021E049
:1038A00030E001C0220F8A95EAF78181822B818363
:1038B00008952091010130910201F90132969FEFA4
:1038C00040E05191851751F09F3F19F4511101C00B
:1038D000942F4F5F4E31A9F79F3F09F40895290FA8
:1038E000311D97FD3A95F901828308959091130156
:1038F0009923F1F090916B0297FF1AC0E82FE6959B
:10390000E695E695EF3129F1209101013091020110
:10391000E20FF32FF11D282F277081E090E001C006
:10392000880F2A95EAF780959181892381830895EC
:103930002091010130910201F9013296205E3F4F42
:103940009191891303C0DF0111971C92E217F307CD
:10395000B9F7089581E090E0E0910101F091020152
:10396000E80FF91F1082019680329105A9F708959A
:1039700090911F02892B80931F020895982F909594
:1039800080911F02892380931F02089510921F02C5
:10399000089590911E02892B80931E020895982FFE
:1039A000909580911E02892380931E0208951092A3
:1039B0001E02089590911D02892B80931D02089587
:1039C000982F909580911D02892380931D02089560
:1039D00010921D0208958093FC0108951092FC013D
:1039E00008952091010130910201F9013196205E84
:1039F0003F4F80E0919191118F5FE217F307D1F76C
:103A00000895E0910101F091020180911F028083ED
:103A1000E0910101F0910201808190911E02892BB9
:103A20008083E0910101F0910201808190911D025B
:103A3000892B80839091FC01992361F0E091010131
:103A4000F09102018081892B80830E94F11C8111F9
:103A50001092FC0180910101909102010C9460117F
:103A60006DEE7EEF90E080E00E94682A60E082E0E8
:103A700090E00E944A2A60E083E090E00E944A2A97
:103A800060E084E090E00E944A2A60E085E090E0F7
:103A90000E944A2A40E050E0BA0188E090E00C948D
:103AA0005C2A90E080E00E94442A21E08D3E9E4FF7
:103AB00009F020E0822F089582E090E00C94362AED
:103AC000682F82E090E00C944A2A83E090E00C9406
:103AD000362A682F83E090E00C944A2A84E090E034
:103AE0000C94362A682F84E090E00C944A2A809146
:103AF0007102843039F11092210288E190E020E4D3
:103B00000FB6F894A895809360000FBE20936000D4
:103B100080E00E948D0883B7817F846083BF83B774
:103B2000816083BF7894889583B78E7F83BF0FB6FB
:103B3000F894A8958091600088618093600010924D
:103B400060000FBE089508950895CF930E94A31DAD
:103B50000E945E0B0E94A41DC0E08C2F0E94200CCE
:103B6000892B31F4CF5FC530C1F780E0CF91089544
:103B700081E0FCCF0E9432160E9454110C948D08F3
:103B80001F920F920FB60F9211248F939F93AF93B2
:103B9000BF9380912102811113C08091670290919F
:103BA0006802A0916902B0916A024196A11DB11DFF
:103BB0008093670290936802A0936902B0936A02AF
:103BC000BF91AF919F918F910F900FBE0F901F905B
:103BD000189582E084BD93E095BD9AEF97BD8093E0
:103BE0006E0008952FB7F894809167029091680253
:103BF000A0916902B0916A022FBF0895CF92DF921F
:103C0000EF92FF920F931F932FB7F89440916702A2
:103C1000509168026091690270916A022FBF6A0137
:103C20007B01EE24FF248C0130E020E0C016D10699
:103C3000E206F30650F0481B590BCA011F910F9181
:103C4000FF90EF90DF90CF90089541505109F3CF4E
:103C50001F920F920FB60F9211248F939F93AF93E1
:103C6000BF938091670290916802A0916902B09120
:103C70006A020196A11DB11D8093670290936802AC
:103C8000A0936902B0936A02BF91AF919F918F9107
:103C90000F900FBE0F901F9018950E94DC25F8948E
:103CA0002FEF87EA91E6215080409040E1F700C075
:103CB000000087E090EBDC0180937A0290937B0216
:103CC000A0937C02B0937D0288E19CE00FB6F8944B
:103CD000A895809360000FBE90936000FFCFAF92D5
:103CE000BF92CF92DF92EF92FF920F931F93CF93E9
:103CF000C0E0CC24C394D12CE82EF12C8C2F0E9450
:103D0000200C5C0110E000E0C601002E02C0880F0C
:103D1000991F0A94E2F78A219B21892B99F40F5F5E
:103D20001F4F0E30110581F7CF5FC53039F780E0A6
:103D3000CF911F910F91FF90EF90DF90CF90BF90A8
:103D4000AF900895602F7C2F80E00E949008E816C5
:103D5000F90629F781E0ECCFCF93C82F8CE20E94BF
:103D60006F1E882321F08C2FCF910C946F1E80E062
:103D7000CF910895CF930E94511D811102C00E94DE
:103D8000301DC5E6C15009F0D1C089E20E94AC1EC9
:103D90008111F8C08AE20E94AC1E81110E94301D80
:103DA00085E00E94AC1E81110E944D1E0E945C1D88
:103DB0008093200287E00E94AC1E882371F08BE183
:103DC0000E94AC1E882309F4BAC090912002892F6A
:103DD0008D7F91FF826080932002809120020E945B
:103DE000601D0E946E1D90E090936C0280936B02A8
:103DF00080EE0E94AC1E882341F090916B02892FC7
:103E00008E7F90FF816080936B0289E30E94AC1EDD
:103E1000882341F090916B02892F8D7F91FF826002
:103E200080936B0282EE0E94AC1E882341F0909139
:103E30006B02892F8B7F92FF846080936B0286EEEA
:103E40000E94AC1E882341F090916B02892F877FDE
:103E500093FF886080936B0283EE0E94AC1E8823E0
:103E600041F090916B02892F8F7E94FF8061809347
:103E70006B0285E30E94AC1E882341F090916B0297
:103E8000892F8F7D95FF806280936B0281E30E9472
:103E9000AC1E882341F090916B02892F8F7B96FF97
:103EA000806480936B0281E10E94AC1E882341F004
:103EB00090916B02892F97FB87F9805880936B0252
:103EC00080916B020E94721D87E20E94AC1EC82F77
:103ED0008EE10E94AC1E8111C2608FE10E94AC1E77
:103EE0008111C46080E20E94AC1E8111C86081E231
:103EF0000E94AC1E8111C06182E20E94AC1E811141
:103F0000C06283E20E94AC1E8111C06484E20E9400
:103F1000AC1E882389F1C0688C2F0E94691D6C2F0C
:103F200070E090E080E0CF910C94061A0E945E0B46
:103F30008FE39CE90197F1F700C0000023CF8EE0EA
:103F40000E94AC1E882339F090912002892F8B7F2C
:103F500092FF846040CF80E10E94AC1E90912002CD
:103F6000882329F0892F877F93FF886034CF892F9A
:103F70008E7F90FF81602FCFC111CECF0E94651D33
:103F8000682FCECFCF9108958091240280FF12C078
:103F90006091060185E0689FB001112475956795D1
:103FA0007595679560387105A8F561157105A1F1E2
:103FB000862F089581FF09C06091060185E0689F02
:103FC000B001112475956795EDCF82FF07C0609110
:103FD000060185E0689FB0011124E4CF20912502FD
:103FE0002223A9F0909105016091060185E0689F68
:103FF000B00111242917B0F6269FA001279F500D6C
:104000001124692F70E0CA010E941C2ACBCF65E001
:1040100070E0CECF8FE7089581E00895809124026B
:1040200080FF0CC06091040170E0759567957595EF
:1040300067956115710549F1862F089581FF06C0C6
:104040006091040170E075956795F3CF609104016C
:1040500082FD0BC0909125029923A1F0609103018C
:1040600080910401961738F0682F70E06038710570
:1040700000F38FE70895899FC001112470E00E942A
:104080001C2AF4CF61E070E0D7CF81E00895803F33
:1040900031F40E94C41F8195809328020895813FC6
:1040A00019F40E94C41FF8CF823F31F40E94C41F4C
:1040B0008195809327020895833F19F40E94C41FBD
:1040C000F8CF893F29F40E940E2080932902089599
:1040D0008A3F21F40E940E208195F7CF8B3F31F467
:1040E0000E940E20819580932A0208958C3F19F436
:1040F0000E940E20F8CF843F31F480912602816027
:10410000809326020895853F21F4809126028260E3
:10411000F7CF863F21F4809126028460F1CF873F5C
:1041200021F4809126028860EBCF883F21F48091B2
:1041300026028061E5CF8D3F31F4809124028160B9
:104140008093240208958E3F21F48091240282609E
:10415000F7CF8F3FB9F7809124028460F1CF803F81
:10416000C1F48091280287FD1092280280912702D5
:1041700081110EC08091280281110AC0809129020C
:10418000811106C080912A02811102C0109225027D
:104190000895813F29F48091280218162CF3E6CF68
:1041A00090912702823F29F497FFE0CF10922702D7
:1041B000DDCF833F19F41916CCF3D8CF893F39F4FA
:1041C00080912902181694F610922902CFCF8A3FC7
:1041D00029F48091290287FFC9CFF6CF8B3F39F4AC
:1041E00080912A0287FFC2CF10922A02BFCF8C3F54
:1041F00029F480912A021816BCF3B8CF843F31F419
:10420000809126028E7F80932602B0CF853F21F4D5
:10421000809126028D7FF7CF863F21F48091260280
:104220008B7FF1CF873F21F480912602877FEBCFF0
:10423000883F21F4809126028F7EE5CF8D3F31F4B7
:10424000809124028E7F8093240290CF8E3F21F4B0
:10425000809124028D7FF7CF8F3F09F087CF809127
:1042600024028B7FF0CF86E292E00E946B110E94C5
:10427000F21D909323028093220208951F93CF93FF
:10428000DF9380912202909123020E94FE1DAC01D7
:10429000909125022091070130E0911106C02091F4
:1042A00008018AE0289F900111244217530780F0EB
:1042B00080912702C091280210912902D0912A02F0
:1042C00081110AC0C11178C0111176C0D11174C01A
:1042D000DF91CF911F9108959F3F19F09F5F9093B9
:1042E0002502181624F40E94C41F8093270280918F
:1042F000270287FF05C00E94C41F81958093270273
:104300001C1624F40E94C41F809328028091280266
:1043100087FF05C00E94C41F819580932802609189
:104320002702662331F1C0912802CC2311F1062E19
:10433000000C770B880B990B0E940F2923E333E3C2
:1043400043E35FE30E9473290E94D728609327020A
:104350006C2FCC0F770B880B990B0E940F2923E34E
:1043600033E343E35FE30E9473290E94D7286093FD
:104370002802111624F40E940E20809329028091B5
:10438000290287FF05C00E940E2081958093290293
:104390001D1624F40E940E2080932A0280912A0286
:1043A00087FF05C00E940E20819580932A02DF912D
:1043B000CF911F910C9433219F3F09F08FCFA0CF55
:1043C00085E0E6E2F2E0DF011D928A95E9F71092BE
:1043D000250210922402089580914B020895CF93F4
:1043E000DF9300D01F92CDB7DEB79C0180917102A0
:1043F000843019F593E099833B832A839093E900F5
:104400008FEF9091E800815095FD06C095ED9A954B
:10441000F1F700008111F5CF8091E80085FF0DC014
:1044200050E040E063E070E0CE0101960E944C2431
:104430008091E8008E778093E8000F900F900F90A6
:10444000DF91CF910895CF93DF9300D01F92CDB726
:10445000DEB720917102243031F522E029838058A3
:1044600091099B838A8383E08093E9008FEF909189
:10447000E800815095FD06C095ED9A95F1F7000092
:104480008111F5CF8091E80085FF0DC050E040E03C
:1044900063E070E0CE0101960E944C248091E80018
:1044A0008E778093E8000F900F900F90DF91CF915F
:1044B00008959C01809171028430F9F482E0809328
:1044C000E9009FEF8091E800915085FD06C085EDE1
:1044D0008A95F1F700009111F5CF8091E80085FFF2
:1044E0000CC050E040E065E070E0C9010E944C243F
:1044F0008091E8008E778093E8000895CF93DF9352
:10450000EC01809171028430F1F4909113019923B0
:10451000E9F090916B0297FF19C08093E9008FEF4B
:104520009091E800815095FD06C095E19A95F1F7CC
:1045300000008111F5CF8091E80050E040E060E29A
:1045400070E085FD1AC0DF91CF91089581E08093DE
:10455000E9008FEF9091E800815095FD06C095ED40
:104560009A95F1F700008111F5CF8091E80085FF61
:10457000EACF50E040E068E070E0CE010E944C24B9
:104580008091E8008E778093E80080E2FE01ABE244
:10459000B2E001900D928A95E1F7D5CF809170023B
:1045A000811109C00E94DC250E9439268091E20019
:1045B00084608093E2000895109270020895089537
:1045C00008950C94BA1D42E061EC81E00E945A25E6
:1045D00042E061EC82E00E945A2542E061EC83E017
:1045E0000E945A2542E261EC84E00C945A258091A5
:1045F0007302833009F455C030F4813071F1823098
:1046000009F491C008958A3009F47DC08B3009F413
:1046100063C0893009F044C080917202813209F090
:104620003FC08091760290917702009711F0039736
:10463000B9F58091E800877F8093E8008091E800D9
:1046400082FF2AC08091F10080934B028091E800A4
:104650008B778093E8000C948E2580917202813ACA
:10466000F9F48091E800877F8093E80080917602DA
:1046700090917702892B61F460E28BE292E070E026
:104680000E949B248091E8008B778093E800089536
:1046900060E090E080E0F3CF809171028111CECF95
:1046A000089580917202813AD9F7809176029091B3
:1046B0007702892BA9F78091E800877F8093E80033
:1046C0008091E80080FFFCCF809113018093F1007E
:1046D0008091E8008E77BDCF80917202813201F720
:1046E0008091760290917702892BD1F68091E80033
:1046F000877F8093E8000E948E25809174028093CA
:1047000013010C94321680917202813249F6809125
:10471000E800877F8093E8000E948E2580917502D3
:1047200080934C02089580917202813A09F0B8CFCB
:104730008091E800877F8093E8008091E80080FF07
:10474000FCCF80914C02C2CF84B7877F84BF0FB665
:10475000F894A89580916000886180936000109221
:1047600060000FBE80E880936100109261000E949B
:10477000A3110E94DC250E9439268091E20084600A
:104780008093E20078940E94BB280E94A51189E0E2
:1047900091E00E944F1180917102853029F00E94B2
:1047A000AD110E941C11F7CF0E94771D80916F02FE
:1047B000882389F30E94A51D882369F30E9436246B
:1047C000EACF292F33272330310579F158F42130EE
:1047D0003105F1F02230310519F190E080E030E050
:1047E00020E01AC02132310599F122323105A9F7B2
:1047F000643098F770E0FB01EE0FFF1FE55DFE4FA0
:1048000020813181695D7E4FFB01808190E004C091
:1048100082E190E026E13CE0FA01318320830895B3
:104820008DE690E029EA3BE0F7CF992781309105AA
:1048300061F028F0029789F6E9E7FBE002C0E5EABB
:10484000FBE0849190E09F01E7CFEDE8FBE0F9CF3A
:10485000643008F0C2CFE62FF0E0EE0FFF1FED5CF2
:10486000FE4F2081318189E090E0D6CF80E189BD83
:1048700082E189BD09B400FEFDCF8091D8008F7D13
:104880008093D8008091E00082608093E000809166
:10489000E00081FDFCCF0895AF92BF92CF92DF92EE
:1048A000FF920F931F93CF93DF936C01EB018A016B
:1048B0000E94AD25F82E811123C00115110539F094
:1048C000F80180819181C81BD90BC80ED91EB12C6B
:1048D000A12C2097A9F08091E80085FD22C080914D
:1048E000E8008E778093E80001151105A1F0F8012A
:1048F00080819181A80EB91EB182A08285E0F82E38
:104900008F2DDF91CF911F910F91FF90DF90CF906E
:10491000BF90AF9008950E94AD258823D1F2F82E64
:10492000EFCFF60181916F018093F1002197FFEFA6
:10493000AF1ABF0ACECFFC01809178029091790224
:1049400086179707A0F06115710529F49091E8008A
:104950009E779093E80090E06115710551F49111F4
:1049600008C08091E80082FF35C080E00895BC0156
:10497000F2CF809171028823C9F18530C9F180910D
:10498000E80083FD31C08091E80082FDEACF80918C
:10499000E80080FFE1CF2091F3008091F200322FF8
:1049A000282F6115710519F02830310558F091E074
:1049B0002830310509F090E02091E8002E7720930F
:1049C000E800CACF81918093F100615071092F5F97
:1049D0003F4FE7CF80917102882341F0853041F04D
:1049E0008091E80083FFBDCF81E0089582E00895C3
:1049F00083E00895FC0180917802909179028617F6
:104A00009707A0F06115710529F48091E8008E7771
:104A10008093E80090E06115710551F4911108C090
:104A20008091E80082FF36C080E00895BC01F2CF9B
:104A3000809171028823D1F18530D1F18091E80015
:104A400083FD32C08091E80082FDEACF8091E800CA
:104A500080FFE1CF2091F3008091F200322F282FC8
:104A60006115710519F02830310558F091E02830B2
:104A7000310509F090E08091E8008E778093E8009E
:104A8000CACF84918093F1003196615071092F5FF4
:104A90003F4FE6CF80917102882341F0853041F08D
:104AA0008091E80083FFBCCF81E0089582E0089503
:104AB00083E00895982F973028F08F708093E90055
:104AC00081E008959093E900242F762F50E0981705
:104AD00031F07091EC002091ED005091F00021FD3B
:104AE00002C09F5FE8CF3091EB003E7F3093EB0038
:104AF0003091ED003D7F3093ED003091EB0031605F
:104B00003093EB007093EC002093ED005093F00095
:104B10002091EE0027FDE5CF80E00895809172029C
:104B200087FF13C08091E80082FF06C08091E800F3
:104B30008B778093E80004C0809171028111F2CFDD
:104B40000895809171028823D9F38091E80080FF55
:104B5000F8CF8091E8008E77ECCF2091E40030917F
:104B6000E50085E69091EC0090FF06C09091E8008A
:104B700090FF06C080E008959091E80092FDFACF82
:104B800090917102992391F0953091F09091EB0002
:104B900095FD10C04091E4005091E50024173507C1
:104BA00009F381509A01F1F684E0089582E00895B6
:104BB00083E0089581E008950E944A260E945226CB
:104BC000E0EEF0E0808181608083E8EDF0E08081BC
:104BD0008F77808319BCA7EDB0E08C918E7F8C938A
:104BE00080818F7E80831092700208950F931F93AF
:104BF000CF93DF930E944A260E945226C8EDD0E050
:104C000088818F77888388818068888388818F7D79
:104C1000888319BC1092710210926D0210926F027B
:104C200010926E0200EE10E0F80180818B7F80838D
:104C300088818160888342E060E080E00E945A259C
:104C4000E1EEF0E080818E7F8083E2EEF0E0808113
:104C500081608083808188608083F80180818E7F7D
:104C60008083888180618883DF91CF911F910F912C
:104C70000895E8EDF0E080818F7E8083E7EDF0E03D
:104C800080818160808384E082BF81E080937002B4
:104C90000C94F625E8EDF0E080818E7F8083109201
:104CA000E20008951092DA001092E10008951F9238
:104CB0000F920FB60F9211242F933F934F935F9350
:104CC0006F937F938F939F93AF93BF93EF93FF93D4
:104CD0008091E10082FF0BC08091E20082FF07C05B
:104CE0008091E1008B7F8093E1000E94BA2880913F
:104CF000DA0080FF19C08091D80080FF15C0809134
:104D0000DA008E7F8093DA008091D90080FF94C012
:104D100080E189BD82E189BD09B400FEFDCF81E05B
:104D2000809371020E94CE228091E10080FF19C021
:104D30008091E20080FF15C08091E2008E7F809319
:104D4000E2008091E20080618093E2008091D800CF
:104D500080628093D80019BC85E0809371020E9424
:104D6000E0228091E10084FF29C08091E20084FF6D
:104D700025C080E189BD82E189BD09B400FEFDCF77
:104D80008091D8008F7D8093D8008091E1008F7E44
:104D90008093E1008091E2008F7E8093E200809119
:104DA000E20081608093E20080916D02882309F423
:104DB00049C084E0809371020E94E1228091E10069
:104DC00083FF29C08091E20083FF25C08091E1002C
:104DD000877F8093E10082E08093710210926D02E0
:104DE0008091E1008E7F8093E1008091E2008E7FD0
:104DF0008093E2008091E20080618093E20042E0D3
:104E000060E080E00E945A258091F00088608093E5
:104E1000F0000E94DF22FF91EF91BF91AF919F912F
:104E20008F917F916F915F914F913F912F910F9053
:104E30000FBE0F901F90189519BC109271020E941E
:104E4000DC2272CF8091E30087FD02C081E0B2CF07
:104E500083E0B0CF1F920F920FB60F9211242F93C1
:104E60003F934F935F936F937F938F939F93AF93F2
:104E7000BF93CF93EF93FF93C091E900CF708091E0
:104E8000EC001092E9008091F000877F8093F000A1
:104E900078940E9466271092E9008091F000886063
:104EA0008093F000C093E900FF91EF91CF91BF9103
:104EB000AF919F918F917F916F915F914F913F91B2
:104EC0002F910F900FBE0F901F9018951F93CF93A7
:104ED000DF93CDB7DEB7AA970FB6F894DEBF0FBE4B
:104EE000CDBFE2E7F2E08091F100819322E0EA3762
:104EF000F207C9F70E94F7228091E80083FF42C0C1
:104F000080917202909173029A3008F03BC0E92FB1
:104F1000F0E0E357F84D0C94302A9727BB27C227BF
:104F2000BB27C22716283828C2278D289A28803800
:104F300079F0823839F5809176028F708093E9009C
:104F40008091EB0085FB882780F91092E90006C06C
:104F500080916E0290916F02911182609091E800B1
:104F6000977F9093E8008093F1001092F100809178
:104F7000E8008E772DC0282F2D7F21F48823D1F0D3
:104F8000823059F18091E80083FF0AC08091E800E7
:104F9000877F8093E8008091EB0080628093EB0034
:104FA000AA960FB6F894DEBF0FBECDBFDF91CF91AA
:104FB0001F91089580917402813021F7933009F098
:104FC00080E080936F021092E9008091E800877F73
:104FD0008093E8000E948E25D5CF809174028111C4
:104FE000F2CF809176028F7069F28093E900209170
:104FF000EB0020FFE8CF933031F48091EB0080622A
:105000008093EB00E0CF9091EB0090619093EB00E8
:1050100021E030E001C0220F8A95EAF72093EA00F0
:105020001092EA008091EB008860EACF8111AACF4C
:10503000109174021F778091E3008078812B809318
:10504000E3008091E800877F8093E8000E948E252E
:105050008091E80080FFFCCF8091E300806880931E
:10506000E30083E0111101C082E0809371028ACFD6
:105070008058823008F086CF80917402909175023A
:105080008C3D23E09207A1F583E08A838AE289833D
:105090004FB7F894DE01139620E03EE051E2E32F93
:1050A000F0E050935700E49120FF03C0E295EF70C9
:1050B0003F5FEF708E2F90E0EA30C0F0C7968D937F
:1050C0009D932F5F243159F74FBF8091E800877F70
:1050D0008093E8006AE270E0CE0101960E949B2472
:1050E0008091E8008B778093E8004CCFC096E7CFA3
:1050F000AE014F5F5F4F609176020E94E123BC01D9
:10510000892B09F43FCF9091E800977F9093E800B6
:1051100089819A810E94FA24E3CF803809F032CF46
:105120008091E800877F8093E80080916D028093F2
:10513000F1001DCF811126CF90917402923008F0BA
:1051400021CF8091E800877F8093E80090936D02E3
:105150000E948E2580916D02882331F084E0809337
:1051600071020E94E3220ECF8091E30087FDF6CF0B
:1051700081E0F5CF0895CF9380917102882399F053
:10518000C091E900CF708091EC0080FD0EC080E0FE
:10519000C82B1092E9008091E80083FD0E946627E9
:1051A000CF70C093E900CF91089580E8F1CF0E94BD
:1051B000DE286894B1110C946D2908950E9452293B
:1051C00088F09F5798F0B92F9927B751B0F0E1F0C8
:1051D000660F771F881F991F1AF0BA95C9F714C078
:1051E000B13091F00E946C29B1E008950C946C29C3
:1051F000672F782F8827B85F39F0B93FCCF38695B1
:1052000077956795B395D9F73EF49095809570950D
:1052100061957F4F8F4F9F4F0895E89409C097FB8A
:105220003EF490958095709561957F4F8F4F9F4F7D
:105230009923A9F0F92F96E9BB279395F6958795C1
:1052400077956795B795F111F8CFFAF4BB0F11F484
:1052500060FF1BC06F5F7F4F8F4F9F4F16C088232B
:1052600011F096E911C0772321F09EE8872F762F61
:1052700005C0662371F096E8862F70E060E02AF0A2
:105280009A95660F771F881FDAF7880F969587958E
:1052900097F9089557FD9058440F551F59F05F3FF7
:1052A00071F04795880F97FB991F61F09F3F79F048
:1052B00087950895121613061406551FF2CF4695CA
:1052C000F1DF08C0161617061806991FF1CF86954C
:1052D0007105610508940895E894BB276627772730
:1052E000CB0197F908950E9486290C94F7290E9412
:1052F000E92938F00E94F02920F0952311F00C9450
:10530000E0290C94E62911240C946D290E944A2965
:1053100070F3959FC1F3950F50E0551F629FF00108
:10532000729FBB27F00DB11D639FAA27F00DB11D21
:10533000AA1F649F6627B00DA11D661F829F2227AA
:10534000B00DA11D621F739FB00DA11D621F839F31
:10535000A00D611D221F749F3327A00D611D231F07
:10536000849F600D211D822F762F6A2F11249F5755
:1053700050409AF0F1F088234AF0EE0FFF1FBB1F58
:10538000661F771F881F91505040A9F79E3F510517
:1053900080F00C94E0290C946D295F3FE4F3983E73
:1053A000D4F3869577956795B795F795E7959F5FC1
:1053B000C1F7FE2B880F911D9695879597F9089553
:1053C00097F99F6780E870E060E008959FEF80ECB8
:1053D000089500240A94161617061806090608955B
:1053E00000240A9412161306140605060895092EC1
:1053F0000394000C11F4882352F0BB0F40F4BF2B30
:1054000011F460FF04C06F5F7F4F8F4F9F4F08956F
:10541000AA1BBB1B51E107C0AA1FBB1FA617B707DA
:1054200010F0A61BB70B881F991F5A95A9F78095F6
:105430009095BC01CD01089597FB072E16F40094BA
:1054400007D077FD09D00E94082A07FC05D03EF45A
:10545000909581959F4F0895709561957F4F089520
:10546000EE0FFF1F0590F491E02D0994F999FECFFE
:1054700092BD81BDF89A992780B50895A6E1B0E064
:1054800044E050E00C94702AA8E1B0E042E050E023
:105490000C94702A262FF999FECF92BD81BDF89AFF
:1054A000019700B4021639F01FBA20BD0FB6F89468
:1054B000FA9AF99A0FBE08950396272F0E944B2A55
:1054C0000E944A2A252F0E944B2A242F0C944B2AF3
:1054D0000196272F0E944B2A0C944A2ADC01CB010B
:1054E000FC01F999FECF06C0F2BDE1BDF89A3196F4
:1054F00000B40D9241505040B8F70895F894FFCF92
:10550000FFFD012808140A321EEC217E22592223B5
:1055100022EF2101F0F1C6676636943137353497B2
:1055200096339091929395404D3639E40C970C61E7
:0C5530000C280CBB0BD40BED0B060C0080
:00000001FF
